:100000000C942A000C947C050C94AF050C94E2052A
:100010000C9447000C9447000C9447000C9450003B
:100020000C9447000C9483000C9456010C948901A5
:100030000C9447000C9447000C9447000C94470024
:100040000C9447000C9447000C9447000C94470014
:100050000C94470011241FBECFE5D8E0DEBFCDBF12
:1000600010E0A0E6B0E0E8EEF3E102C005900D92EA
:10007000A037B107D9F710E0A0E7B0E001C01D92AA
:10008000A438B107E1F70E9449000C94F2090C94DE
:100090000000DF93CF93CDB7DEB70E944707FFCFB5
:1000A0001F920F920FB60F9211242F933F934F93ED
:1000B0005F936F937F938F939F93AF93BF93EF93D0
:1000C000FF93DF93CF93CDB7DEB78091700090910F
:1000D0007100009729F0E0917000F091710009958E
:1000E000CF91DF91FF91EF91BF91AF919F918F9150
:1000F0007F916F915F914F913F912F910F900FBE24
:100100000F901F9018951F920F920FB60F92112407
:100110002F933F934F935F936F937F938F939F930F
:10012000AF93BF93EF93FF93DF93CF93CDB7DEB73A
:100130008091700090917100009729F0E09170001B
:10014000F09171000995CF91DF91FF91EF91BF91EF
:10015000AF919F918F917F916F915F914F913F915F
:100160002F910F900FBE0F901F901895DF93CF9394
:1001700000D000D00F92CDB7DEB79A838983E98192
:10018000FA818581823050F4E981FA818481882363
:1001900029F0E981FA818481863010F01D824FC0F8
:1001A000E981FA818581282F30E03C832B838B8184
:1001B0009C81009731F02B813C8121303105E1F0A9
:1001C0003CC0EFE4F0E08CE08083ACE4B0E0E98197
:1001D000FA818081918111969C938E93A9E5B0E07C
:1001E000E9E5F0E0808184608C93AEE4B0E0E981E1
:1001F000FA8184818C9321C0EFE4F0E08CE080836D
:10020000AAE4B0E0E981FA818281938111969C93FE
:100210008E93ACE4B0E0E981FA81808191811196FE
:100220009C938E93E9E5F0E080E18083AEE4B0E05A
:10023000E981FA81848188608C9331E03D838D81EE
:100240000F900F900F900F900F90CF91DF91089526
:10025000DF93CF93CDB7DEB7EFE4F0E01082EEE4AA
:10026000F0E01082A9E5B0E0E9E5F0E080818B7E66
:100270008C93ECE4F0E011821082EAE4F0E0118269
:100280001082CF91DF910895DF93CF9300D0CDB747
:10029000DEB79A83898389819A81909371008093D4
:1002A00070000F900F90CF91DF9108951F920F92E1
:1002B0000FB60F9211242F933F934F935F936F9339
:1002C0007F938F939F93AF93BF93EF93FF93DF93AE
:1002D000CF93CDB7DEB780917200909173000097F5
:1002E00029F0E0917200F09173000995CF91DF91B0
:1002F000FF91EF91BF91AF919F918F917F916F91FE
:100300005F914F913F912F910F900FBE0F901F90D3
:1003100018951F920F920FB60F9211242F933F93AF
:100320004F935F936F937F938F939F93AF93BF93FD
:10033000EF93FF93DF93CF93CDB7DEB78091720039
:1003400090917300009729F0E0917200F091730092
:100350000995CF91DF91FF91EF91BF91AF919F915F
:100360008F917F916F915F914F913F912F910F905E
:100370000FBE0F901F901895DF93CF9300D000D041
:100380000F92CDB7DEB79A838983E981FA8185819F
:10039000823050F4E981FA818481882329F0E9814F
:1003A000FA818481863010F01D8248C0E981FA818B
:1003B0008581282F30E03C832B838B819C810097A3
:1003C00031F02B813C8121303105D1F035C0E3E59E
:1003D000F0E080E88083A2E5B0E0E981FA818081E5
:1003E00091818C93A9E5B0E0E9E5F0E0808181603E
:1003F0008C93A3E5B0E0E981FA8184818C931CC0E1
:10040000E3E5F0E088E88083ACE5B0E0E981FA81DB
:10041000828193818C93A2E5B0E0E981FA818081A9
:1004200091818C93E9E5F0E082E08083A3E5B0E080
:10043000E981FA8184818C9331E03D838D810F9035
:100440000F900F900F900F90CF91DF910895DF9351
:10045000CF93CDB7DEB7E3E5F0E01082A9E5B0E0D9
:10046000E9E5F0E080818C7F8C93E2E5F0E010829A
:10047000ECE5F0E01082CF91DF910895DF93CF9308
:1004800000D0CDB7DEB79A83898389819A81909312
:100490007300809372000F900F90CF91DF910895B9
:1004A000DF93CF9300D000D000D0CDB7DEB78983E3
:1004B0006A834B838A81883018F48981843010F0F4
:1004C0001E82D3C08981282F30E03D832C838C810C
:1004D0009D818130910509F443C02C813D812230FA
:1004E00031052CF48C819D81009771F0BCC02C816A
:1004F0003D812230310509F45FC08C819D818330BC
:10050000910509F485C0AFC08B818130A1F4AAE3C5
:10051000B0E0EAE3F0E08081482F8A81282F30E0C4
:1005200081E090E0022E02C0880F991F0A94E2F742
:10053000842B8C9398C0AAE3B0E0EAE3F0E08081DA
:10054000482F8A81282F30E081E090E0022E02C0FF
:10055000880F991F0A94E2F7809584238C9383C0B7
:100560008B818130A1F4A7E3B0E0E7E3F0E0808184
:10057000482F8A81282F30E081E090E0022E02C0CF
:10058000880F991F0A94E2F7842B8C936CC0A7E321
:10059000B0E0E7E3F0E08081482F8A81282F30E047
:1005A00081E090E0022E02C0880F991F0A94E2F7C2
:1005B000809584238C9357C08B818130A1F4A4E370
:1005C000B0E0E4E3F0E08081482F8A81282F30E01A
:1005D00081E090E0022E02C0880F991F0A94E2F792
:1005E000842B8C9340C0A4E3B0E0E4E3F0E080818E
:1005F000482F8A81282F30E081E090E0022E02C04F
:10060000880F991F0A94E2F7809584238C932BC05E
:100610008B818130A1F4A1E3B0E0E1E3F0E08081DF
:10062000482F8A81282F30E081E090E0022E02C01E
:10063000880F991F0A94E2F7842B8C9314C0A1E3CE
:10064000B0E0E1E3F0E08081482F8A81282F30E09C
:1006500081E090E0022E02C0880F991F0A94E2F711
:10066000809584238C9391E09E838E8126960FB68D
:10067000F894DEBF0FBECDBFCF91DF910895DF9319
:10068000CF9300D000D000D0CDB7DEB789836A8386
:100690004B838A81893018F48981853010F01E825D
:1006A000ABC08981282F30E03D832C836C817D8114
:1006B00061307105D1F18C819D818230910534F4D6
:1006C0002C813D812115310571F094C06C817D81B3
:1006D0006230710509F44BC08C819D818330910596
:1006E00009F467C087C0ABE3B0E0EBE3F0E08081E2
:1006F000482F8A81282F30E081E090E002C0880FE7
:10070000991F2A95E2F7809548238B81282F30E0A6
:100710008A81882F90E0B90102C0660F771F8A9501
:10072000E2F7CB01842B8C9365C0A8E3B0E0E8E34B
:10073000F0E08081482F8A81282F30E081E090E02E
:1007400002C0880F991F2A95E2F7809548238B8174
:10075000282F30E08A81882F90E0B90102C0660F0F
:10076000771F8A95E2F7CB01842B8C9343C0A5E3D6
:10077000B0E0E5E3F0E08081482F8A81282F30E067
:1007800081E090E002C0880F991F2A95E2F78095DA
:1007900048238B81282F30E08A81882F90E0B9018F
:1007A00002C0660F771F8A95E2F7CB01842B8C93EA
:1007B00021C0A2E3B0E0E2E3F0E08081482F8A812B
:1007C000282F30E081E090E002C0880F991F2A9521
:1007D000E2F7809548238B81282F30E08A81882F8B
:1007E00090E0B90102C0660F771F8A95E2F7CB014E
:1007F000842B8C9371E07E838E8126960FB6F894BD
:10080000DEBF0FBECDBFCF91DF910895DF93CF93B1
:1008100000D000D00F92CDB7DEB78A836B831982E8
:100820008B81893018F48A81853010F0198280C05C
:100830008A81282F30E03D832C834C815D814130BB
:10084000510579F18C819D818230910534F42C81A0
:100850003D812115310569F06BC04C815D814230CD
:100860005105B9F18C819D818330910509F449C00E
:100870005FC0E9E3F0E08081282F30E08B81882F92
:1008800090E0A90102C0559547958A95E2F7CA0103
:1008900081709070882319F081E0898349C01982A2
:1008A00047C0E6E3F0E08081282F30E08B81882F7D
:1008B00090E0A90102C0559547958A95E2F7CA01D3
:1008C00081709070882319F081E0898331C019828A
:1008D0002FC0E3E3F0E08081282F30E08B81882F68
:1008E00090E0A90102C0559547958A95E2F7CA01A3
:1008F00081709070882319F081E0898319C0198272
:1009000017C0E0E3F0E08081282F30E08B81882F52
:1009100090E0A90102C0559547958A95E2F7CA0172
:1009200081709070882319F081E0898301C0198259
:1009300089810F900F900F900F900F90CF91DF91C2
:100940000895DF93CF9300D000D00F92CDB7DEB7DC
:1009500089836A838981843010F01D8234C0898143
:10096000282F30E03C832B838B819C818130910543
:10097000D1F02B813C81223031052CF48B819C817C
:10098000009761F01EC02B813C812230310581F03F
:100990008B819C818330910581F013C0EAE3F0E004
:1009A0008A8180830EC0E7E3F0E08A81808309C0FA
:1009B000E4E3F0E08A81808304C0E1E3F0E08A812F
:1009C000808391E09D838D810F900F900F900F9009
:1009D0000F90CF91DF910895DF93CF9300D000D097
:1009E0000F92CDB7DEB789836A838981843010F096
:1009F0001D8234C08981282F30E03C832B838B817A
:100A00009C8181309105D1F02B813C8122303105D0
:100A10002CF48B819C81009761F01EC02B813C815E
:100A20002230310581F08B819C818330910581F0EA
:100A300013C0EBE3F0E08A8180830EC0E8E3F0E0CE
:100A40008A81808309C0E5E3F0E08A81808304C065
:100A5000E2E3F0E08A81808391E09D838D810F90B5
:100A60000F900F900F900F90CF91DF910895DF932B
:100A7000CF9300D000D0CDB7DEB78A8319828A81A8
:100A8000843090F58A81282F30E03C832B838B8142
:100A90009C8181309105D1F02B813C812230310540
:100AA0002CF48B819C81009761F01EC02B813C81CE
:100AB0002230310581F08B819C818330910581F05A
:100AC00013C0E9E3F0E0808189830EC0E6E3F0E043
:100AD0008081898309C0E3E3F0E08081898304C0D9
:100AE000E0E3F0E08081898389810F900F900F907F
:100AF0000F90CF91DF9108951F920F920FB60F9232
:100B000011242F933F934F935F936F937F938F9312
:100B10009F93AF93BF93EF93FF93DF93CF93CDB7A3
:100B2000DEB78091740090917500009729F0E091F4
:100B30007400F09175000995CF91DF91FF91EF91CD
:100B4000BF91AF919F918F917F916F915F914F91E5
:100B50003F912F910F900FBE0F901F9018951F92ED
:100B60000F920FB60F9211242F933F934F935F93E1
:100B70006F937F938F939F93AF93BF93EF93FF9365
:100B8000DF93CF93CDB7DEB7809176009091770059
:100B9000009729F0E0917600F09177000995CF91C8
:100BA000DF91FF91EF91BF91AF919F918F917F91D5
:100BB0006F915F914F913F912F910F900FBE0F90CA
:100BC0001F9018951F920F920FB60F9211242F931A
:100BD0003F934F935F936F937F938F939F93AF93C5
:100BE000BF93EF93FF93DF93CF93CDB7DEB78091A1
:100BF000780090917900009729F0E0917800F091C9
:100C000079000995CF91DF91FF91EF91BF91AF915D
:100C10009F918F917F916F915F914F913F912F9114
:100C20000F900FBE0F901F901895DF93CF9300D0B9
:100C300000D00F92CDB7DEB79A838983E981FA811C
:100C40008081833058F4E981FA818181843030F4E5
:100C5000E981FA8182819381009711F41D82A5C0F8
:100C6000E981FA818081282F30E03C832B838B81BE
:100C70009C818130910561F12B813C8122303105CD
:100C800009F44DC08B819C81009709F08CC0A5E5CB
:100C9000B0E0E5E5F0E08081982F9C7FE981FA8162
:100CA0008181892B8C93E981FA8182819381909350
:100CB000750080937400ABE5B0E0EBE5F0E0808177
:100CC00080648C9383E062E040E00E9450026BC03D
:100CD000A5E5B0E0E5E5F0E08081282F237FE981FC
:100CE000FA818181882F90E0880F991F880F991FC2
:100CF000822B8C93E981FA81828193819093770092
:100D000080937600ABE5B0E0EBE5F0E080818068B1
:100D10008C9383E063E040E00E94500244C0E9818C
:100D2000FA8181818230E1F4A4E5B0E0E4E5F0E00D
:100D300080818F7B8C93E981FA818281938190936A
:100D4000790080937800ABE5B0E0EBE5F0E08081DE
:100D500080628C9381E062E040E00E94500223C0F8
:100D6000E981FA8181818330E1F4A4E5B0E0E4E532
:100D7000F0E0808180648C93E981FA8182819381A3
:100D80009093790080937800ABE5B0E0EBE5F0E07C
:100D9000808180628C9381E062E040E00E9450029A
:100DA00002C01D8202C091E09D838D810F900F9043
:100DB0000F900F900F90CF91DF910895DF93CF9315
:100DC00000D00F92CDB7DEB789836A8389818430E2
:100DD00018F48A81883010F01B820FC089816A81E3
:100DE00041E00E945002813039F489816A810E9479
:100DF000150781E08B8301C01B828B810F900F90C0
:100E00000F90CF91DF910895DF93CF9300D0CDB7AE
:100E1000DEB789836A8389816A8141E00E943F034A
:100E20000F900F90CF91DF910895DF93CF9300D073
:100E3000CDB7DEB789836A8389816A8140E00E94E9
:100E40003F030F900F90CF91DF910895DF93CF93E1
:100E500000D00F92CDB7DEB78A836B838A816B8116
:100E60000E94060489838981813031F48A816B81F3
:100E700040E00E943F0305C08A816B8141E00E94EF
:100E80003F030F900F900F90CF91DF910895DF9364
:100E9000CF9300D000D0CDB7DEB7198282E08A832D
:100EA00088E897E09C838B83AFE5B0E0EFE5F0E066
:100EB000808180688C938BE997E00E94440181E2F5
:100EC00099E00E943E020E946E07CE0101960E94A8
:100ED000150680E690E00E94BC01FFCFDF93CF9320
:100EE0000F92CDB7DEB7198219820BC080E06981FD
:100EF0000E94DE0681E069810E94DE0689818F5FA3
:100F000089838981833090F30F90CF91DF91089589
:100F1000DF93CF93CDB7DEB780916D00813041F480
:100F200010926D000E94270286E690E00E94B600B3
:100F3000CF91DF910895DF93CF9300D000D000D000
:100F4000CDB7DEB780917A00813009F08BC08091F7
:100F50008200282F30E03E832D838D819E81813059
:100F6000910599F12D813E812230310509F459C056
:100F70008D819E81009709F05BC181E062E00E9453
:100F8000150780E062E00E94040781E060E00E94B3
:100F90000407809183008F5F80938300809183009A
:100FA000853009F045C180E062E00E94150780E0CD
:100FB00061E00E94040781E061E00E940407109252
:100FC000830081E08093820033C1809183008F5F32
:100FD00080938300809183008530D1F41092830048
:100FE00082E08093820080E061E00E94150781E04A
:100FF00061E00E94150780E062E00E94040781E042
:1010000062E00E94040781E060E00E94150710C1C1
:1010100080E061E00E94260781E061E00E942607EF
:1010200007C1809183008F5F80938300809183004C
:10103000853009F0FDC01092830081E080936E003E
:101040001092820080E062E00E9415070E94E00991
:1010500081E080936D000E94280180E690E00E946C
:10106000BC01E6C080917C00813029F080917B003A
:10107000813009F0DDC080918200282F30E03C8370
:101080002B838B819C818130910509F484C02B8155
:101090003C812230310509F4AAC08B819C810097E4
:1010A00009F0C6C080918100282F30E03A8329835F
:1010B00089819A81009739F029813A81213031055F
:1010C00009F44BC0B5C081E062E00E94040780E0F3
:1010D00060E00E94150780916E00813059F41092F3
:1010E0006E0081E061E00E94040780E061E00E9400
:1010F00004079EC0809183008F5F8093830080915E
:101100008300853009F581E061E00E94150780E0E9
:1011100061E00E94150780E062E00E94040780E021
:1011200060E00E94150781E060E00E94040781E012
:1011300062E00E9415071092830081E080936E00A8
:1011400081E08093810074C081E061E00E94260705
:1011500080E061E00E9426076BC0809183008F5F72
:101160008093830080918300853009F061C01092E4
:10117000830080E062E00E94150781E061E00E9448
:10118000040780E061E00E9404071092810081E082
:10119000809382004DC0809183008F5F8093830095
:1011A000809183008530D1F41092830082E0809397
:1011B000820080E061E00E94150781E061E00E940A
:1011C000150780E062E00E94040781E062E00E946F
:1011D000040781E060E00E9415072AC080E061E01A
:1011E0000E94260781E061E00E94260721C08091CD
:1011F00083008F5F80938300809183008530C1F4EA
:101200001092830081E080936E0010928200109211
:10121000810080E062E00E9415070E94E00981E001
:1012200080936D000E94280180E690E00E94BC013E
:1012300026960FB6F894DEBF0FBECDBFCF91DF91DB
:101240000895DF93CF9300D0CDB7DEB781E062E0A1
:101250000E94040780917D00282F30E03A83298383
:1012600089819A8181309105B1F129813A812230B9
:10127000310509F477C089819A81009709F09BC0F4
:1012800080E060E00E94040781E080937C0010927F
:101290007A0010927B0080917E0090917F000196F1
:1012A00090937F0080937E0080917E0090917F00DC
:1012B00022E08236920709F07EC080E060E00E9462
:1012C000150710927C0010927F0010927E0081E042
:1012D00080937D0070C080916C00813069F481E062
:1012E00080937B0010927A0010927C0080E061E095
:1012F0000E94040710926C0080917E0090917F0004
:10130000019690937F0080937E0080917E00909163
:101310007F008A37910509F04EC0809180008F5F71
:101320008093800010927F0010927E008091800058
:10133000853099F480E061E00E94150710927B00EF
:101340001092800010927F0010927E0081E08093C6
:101350006C0082E080937D002EC080E061E00E94FE
:10136000260729C080E062E00E94040710927B00FB
:1013700081E080937A0010927C0080917E009091B1
:101380007F0032E08236930750F480917E00909186
:101390007F00019690937F0080937E000CC080E0D8
:1013A00062E00E94150710927A0010927F0010925E
:1013B0007E0010927D000F900F90CF91DF910895E5
:1013C000DF93CF93CDB7DEB710927D0010927F00F0
:1013D00010927E001092800081E080936C00CF918B
:0813E000DF910895F894FFCF9E
:1013E8000000000004000000127A0401010101005D
:00000001FF
